:020000040001F9
:10000000C8370020490301005103010053030100D8
:1000100055030100570301005903010000000000CF
:100020000000000000000000000000005B03010071
:100030005D030100000000005F0301006103010097
:1000400063030100630301008D1F010063030100CE
:100050006303010000000000691D0100630301004B
:1000600063030100630301006303010063030100F4
:1000700063030100630301006303010063030100E4
:1000800063030100630301006303010063030100D4
:10009000AD1D010063030100630301006303010060
:1000A0006303010063030100000000000000000082
:1000B0006303010063030100000000000000000072
:1000C0000000000000000000000000000000000030
:1000D0000000000000000000000000000000000020
:1000E0000000000000000000000000000000000010
:1000F0000000000000000000000000000000000000
:1001000000000000000000000000000000000000EF
:1001100000000000000000000000000000000000DF
:1001200000000000000000000000000000000000CF
:1001300000000000000000000000000000000000BF
:1001400000000000000000000000000000000000AF
:10015000000000000000000000000000000000009F
:10016000000000000000000000000000000000008F
:10017000000000000000000000000000000000007F
:10018000000000000000000000000000000000006F
:10019000000000000000000000000000000000005F
:1001A000000000000000000000000000000000004F
:1001B000000000000000000000000000000000003F
:1001C000000000000000000000000000000000002F
:1001D000000000000000000000000000000000001F
:1001E000000000000000000000000000000000000F
:1001F00000000000000000000000000000000000FF
:1002000000F002F800F090F80AA090E8000C824498
:100210008344AAF10107DA4501D100F085F8AFF275
:10022000090EBAE80F0013F0010F18BFFB1A43F0D4
:10023000010318470828000028280000103A24BFAE
:1002400078C878C1FAD8520724BF30C830C144BF3B
:1002500004680C607047000000230024002500267D
:10026000103A28BF78C1FBD8520728BF30C148BF19
:100270000B6070476E2900F0D982702900F0398434
:10028000662902F05783652902F05483672902F03A
:100290005183612902F0508303681B0A28BF41F093
:1002A0008001692900F0BC80642900F0B9807529BB
:1002B00000F0B6806F2900F0C683782900F005842D
:1002C000E92900F06183E42900F05E83F52900F05C
:1002D0005B83EF2900F0C383F82900F004840368EE
:1002E000DB0928BF41F08001632900F0E282732915
:1002F00000F0E782E32901F01980F32901F01E8064
:10030000002070471FB500F0FBF904000020002119
:1003100002F0E4FA401C60600020002102F0F4FAD0
:10032000E0601FBD10B510BD01F06CF81146FFF77D
:10033000E9FF01F05FFF01F03DF903B4FFF7F2FFC1
:1003400003BC01F041F90000094880470948004713
:10035000FEE7FEE7FEE7FEE7FEE7FEE7FEE7FEE775
:10036000FEE7FEE704480549054A064B70470000D2
:10037000D11D010001020100C8270020C83700205C
:10038000C82F0020C82F002010B500F0B9F9001DBB
:1003900010BD00BF492500007CB51D4616460C0067
:1003A000009001D02044401E074B7B442A466946FA
:1003B0000190304600F053FA05461CB10020694612
:1003C00000F060FA28467CBDE104000070B50C46E0
:1003D0000546012A05D02878800600D5EA69002361
:1003E00002E0012305E05B1C934202D2E05C00289E
:1003F000F9D1A869E618C01AA861286A18442862C9
:10040000284600F081F904E0D5E9012114F8010B38
:100410009047B442F8D3284600F08CF970BD000034
:100420002DE9F0410646002410687529314616A5CD
:1004300010D000F090F9002802DA404213A507E03E
:1004400031688A0701D512A502E0490704D511A534
:10045000012401E000F088F900210A2206F12407B6
:1004600009E0B0FBF2FCB0FBF2F302FB1C00303001
:1004700078541846491C0028F3D123462A463046B2
:10048000BDE8F04100F079B9000000002D00000047
:100490002B000000200000002DE9F05F8946044693
:1004A0004FF0000ADFF874B1FB44C0F820A02046EA
:1004B000E1688847002874D0252806D0D4E90121B6
:1004C0009047206A401C2062F1E700265F462046E4
:1004D000E16888472028054607DB312D05D27819C9
:1004E00010F8200C08B10643F1E7B00701D526F05B
:1004F0000406C4F81CA00027C4F818A02A2D09D0AF
:10050000284601F05FFD38B304EB8708303DC8F89A
:10051000185019E059F8041B204604EB870291613A
:10052000E1688847012F054618D1E069002820DAE4
:1005300026F020061DE0D8F8180000EB800005EB3F
:1005400040003038C8F818002046E1688847054662
:1005500001F038FD0028EED1012F0AD02E2D08D150
:100560002046E16888477F1C0546022F46F020069A
:10057000C4DBA069002803DA404246F00106A0610E
:10058000F00701D026F010066C2D0BD0682D09D095
:100590004C2D39D06A2D35D0742D35D07A2D33D0ED
:1005A00016E038E0E1682F4620468847B842054605
:1005B00009D16C2F26D04FF48060E16806432046B5
:1005C0008847054604E06C2F1AD04FF4807006432C
:1005D0000DB3A5F14100192802D8203546F4006674
:1005E0004A462946204626604E46FFF743FE80B124
:1005F00001280BD0F61D26F0070000F1080956E788
:100600004020E4E78020D8E70020D6E706F104097F
:100610004DE7284652E7206ABDE8F09F902400008D
:10062000032A40F2308010F0030C00F0158011F81E
:10063000013BBCF1020F624498BF11F801CB00F8F6
:10064000013B38BF11F8013BA2F1040298BF00F84A
:1006500001CB38BF00F8013B11F0030300F05482D6
:10066000083AC0F0088051F8043B083A51F804CB2E
:10067000A0E80810F5E7121D5CBF51F8043B40F8F4
:10068000043BAFF30080D20724BF11F8013B11F8FF
:1006900001CB48BF11F8012B24BF00F8013B00F843
:1006A00001CB48BF00F8012B70474FF0000200B5A6
:1006B000134694469646203922BFA0E80C50A0E885
:1006C0000C50B1F12001BFF4F7AF090728BFA0E833
:1006D0000C5048BF0CC05DF804EB890028BF40F8FF
:1006E000042B08BF704748BF20F8022B11F0804F41
:1006F00018BF00F8012B7047704770477047000023
:10070000004870478427002070B50446856900685A
:10071000C10601D5302600E02026C00707D070BDF5
:10072000D4E9012130469047206A401C20626D1EAA
:10073000F6D570BD70B5044685690078C00707D14D
:1007400070BDD4E9012120209047206A401C20621E
:100750006D1EF6D570BD09684A0501D540B27047D7
:10076000C905FCD500B2704709684A0501D5C0B279
:100770007047C905FCD580B270472DE9F0470D469A
:1007800099469246044600F124080168880604D57B
:10079000E06921F01001216000E00120A84201DDA4
:1007A000471B00E00027A1697A1902EB0900081A2B
:1007B000A0612078C00602D42046FFF7A5FF0026DE
:1007C00008E0D4E901211AF806009047206A401C8D
:1007D000761C20624E45F4DB2078C0060AD5204600
:1007E000FFF792FF06E0D4E9012130209047206A0C
:1007F000401C2062381EA7F10107F4DC07E0D4E9B1
:10080000012118F805009047206A401C2062281E2C
:10081000A5F10105F3DC2046FFF78CFF20780006E8
:1008200002D50220BDE8F0870120FBE711680268CD
:10083000006A530501D508700AE0D30501D5088088
:1008400006E0130603D5C217C1E9000200E0086004
:100850000120704701694A1C02610878704700B5A1
:100860008FB0CDE901310021059105497944CDE9E9
:10087000031011466846FFF70FFE0FB000BD0000E1
:10088000E5FFFFFF0A6802F8010B0A607047D1E933
:1008900000239A4202D2531C0B601070704710B5AF
:1008A000436913B1AFF3008001E0FFF78FFD012032
:1008B00010BD127800F124010A7000224A70012252
:1008C000EDE711684FF0FF32E9E700002DE9FF5F27
:1008D00015468A460446DFF8AC80F8440027D8E97C
:1008E00000103E46CDE9001010E03AF816106A46B6
:1008F00002A800F027FD411C07D02178890603D506
:10090000E269391891420DD80744761C2078800698
:1009100002D5E069B84205DDAE42E6DB3AF81600E2
:100920000028E2D1A069C01BA0612046FFF7ECFEC1
:10093000D8E90010CDE90010002017E03AF81810AF
:100940006A4602A800F0FEFCB0F1FF3F81460BD0E2
:1009500000250DF1080B05E0D4E901211BF8050085
:1009600090476D1C4D45F7D308F10100B042804619
:10097000E4DB206A384420622046FFF7DBFEBDE856
:10098000FF9F0000722000002DE9F0418046D21D3B
:1009900022F007020025D2E90002F52915A614D09D
:1009A000011E72F1000106DA0023D0EB030063EBB5
:1009B000020211A608E0D8F800108B0701D50FA697
:1009C00002E0490701D50EA601251146002408F1D1
:1009D000240704E000F0CEF830323A55641C50EAA7
:1009E0000102F7D12B46324621464046BDE8F04190
:1009F000FFF7C3BE000000002D0000002B00000028
:100A00002000000030B4002100F1240408E002F0CE
:100A10000705D208303542EA4372DB086554491CA9
:100A200052EA0305F3D10468002310A2250707D575
:100A3000A40600D421B1C46901230DA2641EC461BF
:100A400030BCFFF79ABE10B5044621461068FFF788
:100A50008BFE02462046BDE810400023D2E7D21D9F
:100A600022F00701D1E90023CCE7000000000000DC
:100A700030000000F0B40D460188090502D5214C74
:100A80007C4402E01F4C7C440E34002100F124061B
:100A900008E002F00F071209E75D42EA03721B0942
:100AA0007754491C52EA0307F3D102780023120756
:100AB00004D5702D06D009B1022311342246F0BCB2
:100AC000FFF75BBE01231034F8E770B504460D460E
:100AD00021461068FFF748FE024629462046BDE839
:100AE00070400023C6E7D21D22F00703D3E900239C
:100AF000C0E70368126843F0200303600823C36162
:100B00000023B7E7D41E000010B5203AC0F00B80D8
:100B1000B1E81850203AA0E81850B1E81850A0E801
:100B20001850BFF4F5AF5FEA027C24BFB1E818505B
:100B3000A0E8185044BF18C918C0BDE810405FEACB
:100B4000827C24BF51F8043B40F8043B08BF704747
:100B5000D20728BF31F8023B48BF11F8012B28BF4C
:100B600020F8023B48BF00F8012B7047004870474F
:100B70006427002030B5B0F10A024FEA900E71F1FF
:100B800000034EEA817EB0EB0E0061EB91014FEA6B
:100B9000101E4EEA017E10EB0E0041EB11114FEAE0
:100BA000102E4EEA016E10EB0E0041EB11214FEAC0
:100BB000104E4EEA014E10EB0E0041EB1141401871
:100BC00041F100014FEAD00040EA41704FEAD10103
:100BD00010EB80054FEA810444EA907444EB010471
:100BE0006D1944EB0404521BA3414FF0000348BFAE
:100BF0000A3200D530BD401C41F1000130BD7047C4
:100C00002DE9FF4F0C461E464FF0FF378BB0D2E95F
:100C10000001DDF860800A908A46C1F30A5505B9E3
:100C20003D46002108464FF00000BAF1000F00F4E5
:100C3000400005DA00EB80004FF4400101EA50006B
:100C40004FEA9059B9F1010F00DDB9460A9850EA10
:100C50004A000ED044F61050A5F2FF3545432F143C
:100C6000B8F1000F1ED07542291E1EDDC9F1000229
:100C70001CE0B8F1010F4FF0000001D0302103E07B
:100C8000F24305E02154401CB042FBDB3046002219
:100C9000002121540B99C1F80880C1E900200FB050
:100CA000BDE8F08FBD1B6D1CDEE74A4600DA6942E5
:100CB00006A800F00DFC06AB93E8070003AB83E841
:100CC000070050460A9900F086FC8DE80700A0F561
:100CD00000501F3800900398002D0ADD42F21F01DA
:100CE0004A460844002303A90390684600F0EFFE3B
:100CF00009E0A0F500504A461F38002303A90390DD
:100D0000684600F0F9FE8DE807000004000C03D0EF
:100D10004FF0FF30410800E01046B8F1000F03D05B
:100D20000022009215461EE0751E05D4FFF722FF33
:100D3000303262556D1EF9D5B3460122084302D008
:100D400000227F1C04E02078302801D100227F1E81
:100D5000002A099784D01DE0112D07DAFFF70AFF5A
:100D6000303262556D1C50EA0102F5D1084302D0C1
:100D70000098C8B10EE00021681E05E0235C625CAB
:100D800063542254401E491C8142F7DBAB46A81B2A
:100D9000401E0990002004F80B000B98099AC0F837
:100DA0000880C0E9002B7AE711264FF0000857E7CA
:100DB0002DE9F04F88460446D21D22F0070191B07C
:100DC000D1E90001CDE90A0101F0E8F802460B98EB
:100DD000C00F01D02D2007E02068810701D52B200E
:100DE00002E0202101EAC000032A099001D0072A6D
:100DF00005DB03464146204600F02AFB0BE1207844
:100E0000800601D5E06900E00620B8F1650F814653
:100E100006D0B8F1660F18D0B8F1670F70D131E085
:100E20000020B9F1110F009001DB112301E009F15D
:100E300001030AAA01A90CA8FFF7E2FEDDE90C7084
:100E4000002609F10105834647E001204B4600904A
:100E50004FF000470AAA01A90CA8FFF7D1FEDDE96F
:100E60000DB00C995D46002610B909F101000D186E
:100E7000B9EB050003D4C0F1FF3609F10105A5EB7C
:100E800009002BE0B9F1010F01DA4FF00109002050
:100E9000B9F1110F0090484601DD112300E003462F
:100EA0000AAA01A90CA8FFF7ABFEDDE90C704D46BC
:100EB00000268346207800070AD4AB4500DA5D4659
:100EC00001A8012D04DD411911F8011C302907D0BA
:100ED0004F4502DA17F1040F04DA012082460FE0D1
:100EE0006D1EEEE7002F02DCED1B3E4403E0781C94
:100EF000A84200DD7D1CB81B00F1010A4FF000473D
:100F00002078000703D4AA4501DB4FF0FF3A002107
:100F1000B7F1004F0DF143088DF8431024D00220A3
:100F20002B23002F01DA7F422D230A21021EA0F17C
:100F3000010000DC5FB197FBF1FC97FBF1F201FBD4
:100F40001C7C17460CF1300C08F801CDEEE7A8F137
:100F5000010003702188090501D5452100E06521C4
:100F6000A0F1010800F8011C09980FA9A1EB0807DE
:100F7000FF1D00B10120411901EBEA70A16938445D
:100F8000081A401EA0612078C00602D42046FFF750
:100F9000BBFB099828B1D4E901219047206A401C85
:100FA00020622078C00622D52046FFF7ADFB1EE068
:100FB000002E04DBB34502DD01A8805D00E0302097
:100FC000D4E901219047206A401C2062761CAAF1D6
:100FD00001005FEA000A0AD1FFF792FBC0680168CE
:100FE000405CD4E901219047206A401C2062281E01
:100FF000A5F10105DCDC07E0D4E9012118F8010BBB
:101000009047206A401C2062381EA7F10107F3DCDC
:101010002046FFF78FFB032011B041E62DE9F04F8A
:1010200004460D46D21D22F0070089B0D0E9009792
:101030004846394600F0B2FF0246F80F01D02D2392
:1010400007E02068810701D52B2302E0202101EA77
:10105000C0038DF820300BB1012000E00020032AEE
:10106000824601D0072A04DB2946204600F0F0F929
:101070003FE12078800601D40D2500E0E569C7F343
:101080000A560D2D49DA00214FEA175B08464FF04A
:101090000000002F00F4400007DA00EB80004FF45E
:1010A000400100EBD07001EA60008115012901DDEB
:1010B0004FF0FF3100224FEA850CBCF1180F06D328
:1010C0001346ACF118004FF08052C24003E04FF4D9
:1010D000801323FA0CF30CF10C0CBCF1200F04D399
:1010E000ACF1200C09FA0CF001E007FA0CF0002931
:1010F0004FF0004801DD18B90FE00ED140450CD388
:1011000019EB02095F4121B9404502D19F4329EA09
:101110000209BBEB175F00D0761C2088000502D5C2
:101120007B48784402E07A487844193808AA30238A
:1011300002F80A30037C0AF10101002E0AF1020ACA
:1011400053546A4602DC4FF0300101E04FF03101A8
:101150004FF001088DF8001002D0A6F2FF3603E030
:1011600059EA470100D06B4E002D02DC21780907B7
:1011700004D54FF002082E218DF80110C44600213D
:101180000BE0C7F303433F01C35C491C6D1E02F82B
:101190000830052908F1010801DA002DF1DC0021F1
:1011A0000CE000EB1973491C1B786D1E082902F82E
:1011B00008304FEA091908F1010801DA002DF0DCC6
:1011C00021688B0602D516E0A8F10108E04505DD8F
:1011D00002EB080313F8013C302BF5D0B8F1000FF7
:1011E00009DD02EB080313F8013C2E2B03D109079C
:1011F00001D4A8F10108002D05DD3E2102F80810F8
:101200006D1E08F10108407C002E02F8080008F16C
:10121000010804DA2D20764202F8080002E02B20B3
:1012200002F808000A214FF47A70864208F101089A
:101230000BDB96FBF0F3303302F8083096FBF0F34B
:1012400008F1010800FB136601E0642E0CDB64204A
:1012500096FBF0F3303302F8083096FBF0F308F118
:10126000010800FB136601E00A2E06DB96FBF1F095
:10127000303002F8080008F1010896FBF1F001FB9C
:101280001060303002F80800A16908F1010808EB8D
:10129000050202EB0A00081AA0612078C00602D4F9
:1012A0002046FFF731FA216A08AE01EB0A002062FE
:1012B00004E0D4E9012116F8010B9047BAF1010AC4
:1012C000F7D22078C00602D52046FFF71DFA6E46F9
:1012D00009E016F8010B3E280FD0D4E90121904710
:1012E000206A401C2062B8F10108F2D22046FFF7C4
:1012F00021FA09B00320BDE8F08F206A284420625B
:1013000003E0D4E90121302090476D1EEBD3F8E7CC
:101310006D18000002FCFFFF10B5436913B1AFF375
:10132000008001E0FFF7D2FA012010BD128800F121
:10133000240182840022C2840122EDE711684FF06B
:10134000FF32E9E770B516460C460546FFF71CF874
:10135000036893F80101012806D0FF2C0FD8185D0F
:1013600068B101202C7070BDD3F8070132462146C8
:1013700003F2071303442846BDE8704018474FF0B6
:10138000FF3070BD4FF0013C50F8042B51F8043B86
:101390009A4221D1A2EB0C03934313EACC1317D149
:1013A00050F8042B51F8043B9A4215D1A2EB0C03E0
:1013B000934313EACC130BD150F8042B51F8043BA0
:1013C0009A4209D1A2EB0C03934313EACC13DBD06E
:1013D0004FF00000704700BFD01A01BAB1FA81F196
:1013E00001F0180122FA01F0CB40C1F12001DBB27B
:1013F000C0B2C01A2CFA01F3D11A914311EAC311F9
:10140000E6D170477546FFF7B1FBAE460500694669
:10141000534620F00700854618B020B5FEF7A2FF1E
:10142000BDE820404FF000064FF000074FF00008E5
:101430004FF0000B21F00701AC46ACE8C009ACE866
:10144000C009ACE8C009ACE8C0098D46704700008F
:101450002DE9F0411F46044603260168072A01F4DE
:10146000006004DB08B116A505E016A503E008B18D
:1014700015A500E015A521F010002060A069C01E90
:10148000A0610FB1401EA0612046FFF73DF94FB1AA
:10149000D4E9012138469047206A401C2062C01CD4
:1014A000206206E0206AFAE7D4E9012115F8010B71
:1014B0009047761EF8D22046FFF73CF9BDE8F08150
:1014C0004E414E006E616E00494E4600696E6600E8
:1014D0002DE9F047814616468AB0354878440DC854
:1014E0008DE80D0032487844801C03AC0DC884E8B8
:1014F0000D0041F69B300844372190FBF1F290FB40
:10150000F1F5A5F1800501FB12041B3C02D56442F4
:10151000012000E00020DFF898A080460027FA4470
:10152000AAF1BE0A0EE0E0070AD03246684607EB91
:10153000470101230AEB810100F0DEFA8DE8070084
:1015400064107F1C002CEED1194F7F44AE3F19E090
:10155000E80715D007EB04100DF1180A90E80E000B
:101560008AE80E00C068F04201D19819089032460E
:10157000012306A903A800F0BFFA03AB83E8070024
:101580006D10641C002DE3D14FF001033246694613
:10159000B8F1000F03A802D000F099FA01E000F0C2
:1015A000ABFAC9E90001C9F808200AB0BDE8F08724
:1015B0004415000010B50446AFF300802046BDE896
:1015C0001040FEF7BABE000001491820ABBEFEE78E
:1015D0002600020070475FEA400C08BF91F0000F40
:1015E0004FEA8C234FEAC12243EA51514FEA1C5083
:1015F00018BF00F5F0404FEA300018BF41F000413D
:101600005FEA6C5C00F02980BCF1FF3F08BF40F04E
:1016100080407047130C06BF12044FF0100C4FF0BF
:10162000000C130E04BF12020CF1080C130F04BFC0
:1016300012010CF1040C930F04BF92000CF1020C88
:10164000D30F04BF52000CF1010C11464FF0000201
:10165000A0F11F00A0EB0C00704711F0004F08BF75
:10166000704731F000413FF4D5AF0B0C06BF0904C1
:101670004FF0100C4FF0000C0B0E04BF09020CF1E0
:10168000080C0B0F04BF09010CF1040C8B0F04BFF5
:1016900089000CF1020CCB0F04BF49000CF1010CC6
:1016A000CCF12003A0EB0C0022FA03F302FA0CF2B7
:1016B00041EA030100F10100704720F07F4C80EA0D
:1016C000030023F07F47ACEB070303F57C5300F0E6
:1016D000004003F1FF032DE980494FEA154B09B49F
:1016E0004FEA144325EA0B4E24EA03480FF204267E
:1016F00006EB132749083E785FEA320203FB0667D0
:10170000C7F5000707FB06F64FEA54374FEAD646FF
:1017100006F1020607FB066CCCF1005C4FEA1C47A1
:101720002CEA074C07FB06F40CFB06F504EB154608
:101730004FEA961634BF00204FF000404FEAD137F1
:1017400006FB07FC4FEA1C4C0CFB0BF7D21B03FB00
:101750000CF761EB07010CFB0EF7B0EB074072EBE7
:1017600017420CFB08F734BFA2EB0742B2EB07426B
:1017700061EB17414FEA0C444FEA910706FB07FC67
:101780004FEA1C4C0CFB0BF7B0EBC74072EB573227
:1017900003FB0CF734BFA2EBC742B2EBC74261EBCD
:1017A00057310CFB0EF7B0EBC70072EB57720CFB16
:1017B00008F734BFA2EBC702B2EBC70261EB577167
:1017C000039F4FEA816141EA921104EBCC044FEA96
:1017D000D1374FEA826206FB07FC42EA90124FEAD9
:1017E00080604FEA1C4C0CFB0BF7D21B03FB0CF781
:1017F00061EB07010CFB0EF7B0EB074072EB1742F1
:101800000CFB08F734BFA2EB0742B2EB074261EBD7
:1018100017414FEA8C554FEA910704EB9C2406FBD5
:1018200007FC4FEA1C4C0CFB0BF7B0EBC74072EB0C
:10183000573203FB0CF734BFA2EBC742B2EBC742EF
:1018400061EB57310CFB0EF7B0EBC70072EB577230
:101850000CFB08F734BFA2EBC702B2EBC70261EB87
:10186000577115EB4C254FEA816141EA92114FEA1D
:1018700082624FEAD13742EA901206FB07FC44F13C
:1018800000044FEA80604FEA1C4C0CFB0BF7D21BA4
:1018900003FB0CF761EB07010CFB0EF7B0EB074005
:1018A00072EB17420CFB08F734BFA2EB0742B2EB16
:1018B000074261EB174115EB1C154FEA813141EAF4
:1018C00092414FEA823242EA90424FEA80304FEA38
:1018D0000C7644F1000448EA03434EEA0B484FF00B
:1018E000000EB2EB080C71EB030724BF62463946C9
:1018F0004EEB0E0E4FF0000B0018524149414BEBDE
:101900000B0BB2EB080C71EB03077BF1000B24BF50
:10191000624639464EEB0E0E4FF0000B0018524156
:1019200049414BEB0B0BB2EB080C71EB03077BF15E
:10193000000B24BF624639464EEB0E0E51EA0207F9
:1019400018BF46F0010616EB0E7655F1000254F171
:10195000000103D5BDE88901BDE80088BDE8890123
:10196000BDE80048B619524141EB0101A3F1010362
:10197000704780807F7E7D7C7B7A797877767675FC
:101980007473727171706F6E6E6D6C6C6B6A6A6974
:101990006868676666656464636362616160605F0E
:1019A0005F5E5E5D5D5C5C5B5B5A5A595958585787
:1019B00057565655555554545353525252515150EF
:1019C00050504F4F4F4E4E4D4D4D4C4C4C4B4B4B42
:1019D0004A4A4A4949494848484747474746464688
:1019E00045454544444444434343434242424241C3
:1019F0004141002B9C4630D477002BD01CB54FEAD8
:101A0000370703B44FF010004FF01001BAF1000F88
:101A100006D0BCF1000FDCBF40F0080040F0080128
:101A20004FF000000FBCBDE810400BF1010BBBF103
:101A3000010F08BF5FEA170722BF12F1010211F17F
:101A400001014FF0004143F1000300F0004043EA80
:101A500000007047F9D35708D0E746EA064613F16D
:101A6000400F4FEA16461FDD13F1200FDFBF16436C
:101A70000A46002120335B42BED0C3F1200746EA6C
:101A8000064602FA07F74FEA164646EA0706C3F18A
:101A9000200722FA03F201FA07F721FA03F14FF0C7
:101AA000000342EA0702A7E746EA020646EA0646BC
:101AB0004FEA164646EA0106BCBF46EA0646360C21
:101AC0004FF000034FF000024FF0000194E72DE9C2
:101AD000804C9A46934670B491E8380007C831EAC2
:101AE000400C48BF34EA430C03D5FFF7E6FDFFF78F
:101AF00080FFF0BCBDE8008C2DE9804C9A469346EF
:101B000070B491E8380007C810F0804F08BF13F098
:101B1000804F03D100F005F8FFF76BFFF0BCBDE884
:101B2000008C20F07F4780EA030023F07F4C07EB16
:101B30000C03A3F57C5300F00040A3F1FE0392F0E8
:101B4000000F00F0B38095F0000F00F077802DE9D2
:101B500001494FEA11404FEA144621EA004800FBD0
:101B600006FC24EA064708FB06F607FB08F800FB1C
:101B700007F718EB06484CEB164C4FEA124B18EBE4
:101B800007484FEA15464CEB174022EA0B4E0BFB79
:101B900006FC25EA06470EFB06F607FB0EFE0BFBCE
:101BA00007F71EEB064E4CEB164C4FF000061EEBF3
:101BB000074E4CEB174B18EB0B0840F1000018EBED
:101BC0000E0B58EB000840F100008F1A4FF0000197
:101BD0003CBFC943661B14BFB5EB040C00213CBFDE
:101BE000C943F61B4FEA17444EEA8E0E27EA044516
:101BF0004FEA1C4704FB07622CEA074C05FB07F77A
:101C00000CFB05F604FB0CFC16EB074642EB1742F7
:101C100016EB0C4642EB1C421BEB060658EB02028D
:101C2000414146EA9E0601D5BDE80189B6195241F7
:101C300041EB0101A3F10103BDE801894FEA14451D
:101C40004FEA114724EA054621EA074C05FB07F451
:101C500006FB07F70CFB06F105FB0CFC11EB07413B
:101C600044EB17444FEA124711EB0C4144EB1C4480
:101C700022EA074C05FB07F206FB07F70CFB06F60A
:101C800005FB0CFC16EB074642EB174216EB0C4625
:101C900042EB1C456A1854F1000148BF7047B61961
:101CA000524141EB0101A3F10103704795F0000F90
:101CB00037D04FEA11424FEA144721EA024624EA9C
:101CC000074C02FB07F106FB07F70CFB06F402FBCF
:101CD0000CFC14EB074441EB17414FEA154714EB9A
:101CE0000C4441EB1C4125EA074C02FB07F506FBBF
:101CF00007F70CFB06F602FB0CFC16EB074645EB60
:101D0000174516EB0C4645EB1C42121951F1000128
:101D100048BF7047B619524141EB0101A3F10103DD
:101D200070474FEA14454FEA114724EA054621EA75
:101D3000074C05FB07F106FB07F70CFB06F24FF01B
:101D4000000605FB0CFC12EB074241EB174112EBBE
:101D50000C4251EB1C4148BF7047921841EB010106
:101D6000A3F101037047000070B50E4DD5F87C015A
:101D7000002420B100F0FEFC0B480461C460C5F8EB
:101D80007C41C5F80041C5F80441C5F80841C5F8D3
:101D90000C41C5F81041C5F81441C5F81841C5F803
:101DA0001C4170BD006000403820002010B507487D
:101DB00002DF202806D04FF0E0214FF48010C1F858
:101DC000800210BD014800F02FF9F0E7A4200020A8
:101DD00030B54FF08053D3F84412D3F830015E4A47
:101DE000C1F34231116000229900C1F80C21C1F801
:101DF00010215949091F0A6058490968584C216047
:101E00005649091D0968241D216054490831096893
:101E1000241D216051490C310968241D21604F495E
:101E200010310968241D21604C4914310968241DB2
:101E300021604A4918310968494C203421604749DA
:101E40001C310968241D2160444920310968241D82
:101E50002160424924310968241D21603F4928310D
:101E60000968241D21603D492C310968241D216029
:101E70003A49303109683A4C4034216037493431AD
:101E80000968241D2160354938310968241D216005
:101E900032493C310968241D2160304940310968CC
:101EA000241D21600A2805D1D3F8341111B92D4C15
:101EB000FB2121602C490978062915D12A49091DE1
:101EC0000978090710D1284908310978C1F30311AD
:101ED000032903D0042901D0052905D1D3F85812CC
:101EE000224C01F04F01216021480168C90702D04E
:101EF0006FF0010101604FF01024D4F800020028B7
:101F000003DBD4F80402002822DA1A4B01201860FF
:101F1000194801680029FCD01525C4F80052016851
:101F20000029FCD0C4F8045201680029FCD01A60D2
:101F300001680029FCD0BFF34F8F10480168104A98
:101F400001F4E06111430160BFF34F8F00BFFDE773
:101F50000D490C48086030BD3C05004004040010E9
:101F600020C5004018F50040E00F00F0E40E0040EE
:101F70000004004004E5014000E401400CED00E0F5
:101F80000400FA050090D0030020002002480068F9
:101F9000002800D00047704720200020490050EA68
:101FA000C12018BF04204A0D18BF40F0010040F2C4
:101FB000FF72B2EB515F08BF40F00200012808BF7A
:101FC0000520704730380A2801D2012070470020D0
:101FD0007047F0B5030009D041B1C02700240120AB
:101FE000DB251F70DC264FF0DD0C17E04FF0FF30D3
:101FF000F0BD11F804E0BEF1C00F05D0BEF1DB0F5B
:1020000006D003F800E007E01D54401C1E5403E016
:102010001D54401C03F800C0401C641C9442E8DBC3
:102020001F54401CF0BD000010B50146027818484E
:102030000C2A10D2DFE802F00F0610151D210F0F39
:102040000F0F0F240122026048788A78C91C42EAE7
:10205000002000F021F810BD0021016000F01DF803
:1020600010BD4A79D1F80100BDE81040891D00F08B
:1020700030B94168491C416010BD00F010F810BD36
:102080004978044804DF034800F008F810BD000058
:102090001820002044210020704770477047704787
:1020A00001208107C86730BF7047802903DB00210A
:1020B00001608160416070470FB47F2100B5A1B01D
:1020C00023AB6846229AFEF767F90021002801DD5C
:1020D0000DF80010684600F09FFB21B05DF814FB7E
:1020E0002DE9F04115460F46044600F059F88542A7
:1020F00000D905462268A068411C10400E1AAE4265
:1021000000D92E46E168324608443946FEF788FA7F
:10211000AA1BB919E068FEF783FA206828442060FA
:102120002846BDE8F08130B54FF0FF3512B1531E9F
:102130001A4201D0284630BD002404604460C160CA
:10214000022A01D28460F5E78360002030BD10B51B
:10215000044600F004F861680144616010BD2DE997
:10216000F0410446006815460F466168401A8242F5
:1021700000D905466268A068411C10400E1AAE42A4
:1021800000D92E46E168324601443846FEF748FA47
:10219000AA1BB819E168FEF743FA2846BDE8F081AA
:1021A000016842688068891A401A401C7047000024
:1021B00004480168012904D0034A08211160012163
:1021C0000160704738200020002500400748416822
:1021D000002909D18168002906D10168002903D0AE
:1021E000034A002111600160704700003820002080
:1021F0000025004000DF4FF0102090F80C0210F096
:10220000FF0F17D06FF0FF01124800F0B3F9002064
:102210004FF6FF71401C8842FCD3BFF34F8F0E482E
:1022200001680E4A01F4E06111430160BFF34F8F72
:1022300000BFFDE70A4808DF09480121C164416584
:1022400009DF01DF00F052F8FFF72AFF00F05AF82B
:10225000FAE700000C1200100CED00E00400FA0593
:102260004C20002010B500F033F8BDE8104000F01D
:10227000DBB870B514460D460646D2B200F00CF835
:10228000224629463046BDE8704000F017B900F0FC
:1022900035B900F035B9000000F58070FB3012D17F
:1022A00008785B280FD10520401EFDD1BFF34F8F6A
:1022B00005480168054A01F4E06111430160BFF37C
:1022C0004F8F00BFFDE770470CED00E00400FA05FA
:1022D000704770B514460D46064600F02BF82246AE
:1022E00029463046BDE87040FFF7C3BF10B500F087
:1022F00037F8FFF7B7FF02490020086010BD000063
:1023000018200020054810B5416819B1002141602E
:1023100000F006F8BDE81040FFF7B9BF1820002014
:1023200010B500F045F8BDE81040FFF7B2BF03DF7D
:102330007047000000F58070FF300ED1087801284A
:102340000BD1064801210322416000218160C16058
:102350000168891CB1FBF2F1016170470420002083
:1023600070B500200849044641F82040401C202850
:10237000FAD3064D6FF4FF702C6000F009F86C6022
:10238000AC60EC602C6170BDC420002004200020F3
:1023900010B500F095FA054A034B116843F8210087
:1023A000491C116010BD0000C42000200420002042
:1023B00010B5094C606800280DD001280BD1A16828
:1023C0002069884202D10020606001E000F006F838
:1023D000A068401CA06010BD042000201FB510495B
:1023E0000A78088962F31F20022202EB0040009065
:1023F0000C4AC86852F82030401C019352F8203033
:10240000401C029352F820200392401CC860002315
:10241000102269466FF4FF70FFF789FF1FBD0000AF
:1024200004200020C420002008B500F00DFA002090
:10243000FF2200900A230921104600F0F7F80C480B
:1024400000F03AF90B490420C1F804034FF0E021F1
:10245000C1F8800240228B1C83F80024C1F80001DF
:1024600005A0FFF729FEBDE8084000F02BB90000E9
:1024700085240100002000406E6F64652075617244
:10248000740A000070B50B4DD5F80801002430B176
:10249000C5F8084108480068C0B200F005FAC5F860
:1024A0000041C5F82441C5F80441C5F84441C5F8C8
:1024B0001C4170BD002000401825004070B5144636
:1024C0000D46682816D1002C14D000F06BF9224676
:1024D0002946094800F0B6F905460024064E03E0F7
:1024E000305D00F089F9641CAC42F9D3BDE870405E
:1024F00000F06EB970BD00004422002000F0BCB9AD
:1025000000F018B970B541EA4201DDE904454FF029
:10251000A04641EA830141EA042106EB800041EA3A
:102520000541C0F8001770BD70B541EA4201DDE910
:1025300004454FF0A04641EA830141EA042106EB3D
:10254000800041EA0541C0F8001770BD1CB50022AB
:102550000B46009211460192FFF7D4FF1CBD1CB53B
:10256000002100910B46012201911146FFF7CAFF9D
:102570001CBD0000094A01231360BFF36F8FBFF336
:102580004F8F0160064801680029FCD000201060D0
:10259000BFF36F8FBFF34F8F7047000004E501401A
:1025A00000E40140002909D0122900D91221CAB241
:1025B000002300F110016820FFF7B9BE704770B525
:1025C000044642681030002522B1DC2921D0DD29E3
:1025D0002AD120E00122C0290ED0DB2917D0A26821
:1025E000012A13D12268531C23601154204621680C
:1025F000BDE87040FFF759BD216829B1E2680AB112
:1026000020469047A56000E0A260256070BD626032
:1026100070BDC02300E0DB2321684A1C22600B54FC
:1026200020462168FFF741FD656070BD2DE9F04748
:1026300080461E4617460D460846DDF82090FFF7F7
:102640008EFF4FF0A041012404FA05F0C1F80805FF
:1026500003213046FFF77AFF14480560134808301D
:102660000660B9F1000F10D04046FFF778FF002157
:102670003846FFF76BFF0D48001D07600B49091F27
:10268000C1F80080094860300460084908481831E2
:102690000860064904200C3908600648846004601C
:1026A0000021C0F80811BDE8F08700000C250040AB
:1026B00000E0D70100200040014908607047000099
:1026C000202000207CB54FF0A0414FF08060C1F881
:1026D0000805002401221A20009423461146019483
:1026E000FFF722FF104D601EC5F808030323CDE954
:1026F000004300221C20114605F54175FFF714FF29
:10270000680728604FF0E0214020C1F880028A1D50
:1027100082F80004C1F80001044804600448046021
:10272000846044607CBD00000060004000250040E3
:10273000382000204FF0A040D0F810054FF00001E5
:10274000000F10F0010F0A4809D002695AB1C168A0
:10275000491CC160C068052808D900F017B801619C
:10276000C16000F007B801220261C160704700003B
:102770003820002004488168002903D101218160AC
:10278000FFF716BD7047000038200020044881681C
:10279000012903D100218160FFF718BD70470000B7
:1027A00038200020094810B5416800290CD10121CA
:1027B00041604FF0A0414FF08060C1F80C05FFF779
:1027C000F7FC0A20401EFDD110BD0000382000207B
:1027D000084910B5486801280BD10A20401EFDD1D8
:1027E0004860FFF7F3FC4FF0A0404FF08061C0F865
:1027F000081510BD38200020054908600548D0F8AC
:102800001C110129FBD10021C0F81C1170470000E8
:102810001C2500400020004000B50346007801223E
:1028200003E0FFF7E9FF985C521C0028F9D100BDD6
:1028300010B504469021FDF738FF0021E16010BD7E
:10284000C1607047FFF7C5BB084910B54FF48062FF
:1028500001F58060FFF767FC0548FFF7E9FFBDE879
:10286000104004490248FFF7EBBF0000C4220020DB
:10287000D4260020A525010070B50949402201F5A4
:102880008860FFF764FC050009D00024044E04E0D2
:10289000315D0448FFF793FE641CAC42F8D370BD71
:1028A00084220020D426002008B501228DF80000E3
:1028B00069460248FFF714FC08BD0000C42600204A
:1028C000020E62F30701020C62F30F21020A62F3A7
:1028D000174160F31F6108467047000010B50029DA
:1028E0000AD00878002807D005487844FEF74AFD4A
:1028F000002801D0002010BD0248784410BD00001F
:10290000720100006A01000010B500290AD00878A1
:10291000002807D005487844FEF734FD002801D090
:10292000002010BD0248784410BD0000560200008F
:102930004E020000FEF73CBAFEF770BB0400000830
:102940000000000000000002000100001000000074
:1029500000000000000000003031323334353637DB
:1029600038394142434445464030580030313233D3
:1029700034353637383961626364656640307800D3
:1029800030313233343536373839616263646566E5
:10299000787000303132333435363738394142437C
:1029A000444546585000000002400000000000A0CE
:1029B0000000000005400000000000C8000000000A
:1029C0000C4000000000409C000000001940000086
:1029D0000020BCBE0000000034400000BFC91B8EB8
:1029E00000000004B5400000504BCFD06607E2CF96
:1029F000010000006C4100003E8251AADFEEA734C6
:102A000001000000D9420000DCB5A0E23A301F9777
:102A1000FFFFFFFFB4450000FD25A0C8E9A3C14F9B
:102A2000FFFFFFFFFF3F00000000008000000000EC
:102A3000FF3F00000000008000000000882B010024
:102A4000002000204C0000003C020100D42B0100BB
:102A50004C2000207C1700005802010010010000EB
:102A600043000000F8FFFFFF00404040404040406E
:102A70004040414141414140404040404040404051
:102A800040404040404040404005020202020202F5
:102A90000202020202020202022020202020202044
:102AA0002020200202020202020290909090909058
:102AB0001010101010101010101010101010101016
:102AC000101010100202020202028888888888888A
:102AD0000808080808080808080808080808080876
:102AE000080808080202020240000000000000007E
:102AF00000000000000000000000000000000000D6
:102B000000000000000000000000000000000000C5
:102B100000000000000000000000000000000000B5
:102B200000000000000000000000000000000000A5
:102B30000000000000000000000000000000000095
:102B40000000000000000000000000000000000085
:102B50000000000000000000000000000000000075
:102B60000000000000000000000000001C00000049
:102B700043000000F8FFFFFF0C0000000E00000003
:102B80000F0000002E0000000090D00300000000A5
:102B90000000000000000000000000000000000035
:102BA000000000000000000000000000303132335F
:102BB0003435363738394142434445460000000039
:102BC0000000000000000000000000000000000005
:042BD0000000000001
:0400000500010201F3
:00000001FF
